{
  "contractName": "SimpleStorage3",
  "abi": [
    {
      "constant": false,
      "inputs": [
        {
          "name": "x",
          "type": "string"
        }
      ],
      "name": "set",
      "outputs": [],
      "payable": false,
      "stateMutability": "nonpayable",
      "type": "function",
      "signature": "0x4ed3885e"
    },
    {
      "constant": false,
      "inputs": [
        {
          "name": "temp",
          "type": "string"
        }
      ],
      "name": "setMetaFile",
      "outputs": [],
      "payable": false,
      "stateMutability": "nonpayable",
      "type": "function",
      "signature": "0x4cf1cb96"
    },
    {
      "constant": true,
      "inputs": [],
      "name": "get",
      "outputs": [
        {
          "name": "",
          "type": "string"
        }
      ],
      "payable": false,
      "stateMutability": "view",
      "type": "function",
      "signature": "0x6d4ce63c"
    },
    {
      "constant": true,
      "inputs": [],
      "name": "getMetafile",
      "outputs": [
        {
          "name": "",
          "type": "string"
        }
      ],
      "payable": false,
      "stateMutability": "view",
      "type": "function",
      "signature": "0xe982425d"
    }
  ],
  "bytecode": "0x608060405234801561001057600080fd5b50610560806100206000396000f3fe608060405260043610610062576000357c0100000000000000000000000000000000000000000000000000000000900463ffffffff1680634cf1cb96146100675780634ed3885e1461012f5780636d4ce63c146101f7578063e982425d14610287575b600080fd5b34801561007357600080fd5b5061012d6004803603602081101561008a57600080fd5b81019080803590602001906401000000008111156100a757600080fd5b8201836020820111156100b957600080fd5b803590602001918460018302840111640100000000831117156100db57600080fd5b91908080601f016020809104026020016040519081016040528093929190818152602001838380828437600081840152601f19601f820116905080830192505050505050509192919290505050610317565b005b34801561013b57600080fd5b506101f56004803603602081101561015257600080fd5b810190808035906020019064010000000081111561016f57600080fd5b82018360208201111561018157600080fd5b803590602001918460018302840111640100000000831117156101a357600080fd5b91908080601f016020809104026020016040519081016040528093929190818152602001838380828437600081840152601f19601f820116905080830192505050505050509192919290505050610331565b005b34801561020357600080fd5b5061020c61034b565b6040518080602001828103825283818151815260200191508051906020019080838360005b8381101561024c578082015181840152602081019050610231565b50505050905090810190601f1680156102795780820380516001836020036101000a031916815260200191505b509250505060405180910390f35b34801561029357600080fd5b5061029c6103ed565b6040518080602001828103825283818151815260200191508051906020019080838360005b838110156102dc5780820151818401526020810190506102c1565b50505050905090810190601f1680156103095780820380516001836020036101000a031916815260200191505b509250505060405180910390f35b806001908051906020019061032d92919061048f565b5050565b806000908051906020019061034792919061048f565b5050565b606060008054600181600116156101000203166002900480601f0160208091040260200160405190810160405280929190818152602001828054600181600116156101000203166002900480156103e35780601f106103b8576101008083540402835291602001916103e3565b820191906000526020600020905b8154815290600101906020018083116103c657829003601f168201915b5050505050905090565b606060018054600181600116156101000203166002900480601f0160208091040260200160405190810160405280929190818152602001828054600181600116156101000203166002900480156104855780601f1061045a57610100808354040283529160200191610485565b820191906000526020600020905b81548152906001019060200180831161046857829003601f168201915b5050505050905090565b828054600181600116156101000203166002900490600052602060002090601f016020900481019282601f106104d057805160ff19168380011785556104fe565b828001600101855582156104fe579182015b828111156104fd5782518255916020019190600101906104e2565b5b50905061050b919061050f565b5090565b61053191905b8082111561052d576000816000905550600101610515565b5090565b9056fea165627a7a7230582004461ef54fef59dceebae2ab4ae53de5b1969c4c39b4dc17bb4fed40334033150029",
  "source": "pragma solidity ^0.5.0;\n\ncontract SimpleStorage3 {\n  string storedData;\n  string metaHash;\n  \n  function set(string memory x) public {\n    storedData = x;\n    \n  }\n\n  function setMetaFile(string memory temp) public {\n    metaHash = temp;\n    \n  }\n\n  function get() public view returns (string memory) {\n    return storedData;\n  }\n\n  function getMetafile() public view returns (string memory) {\n    return metaHash;\n  }\n}\n",
  "sourcePath": "C:/Users/Berkay/Desktop/ipfs-truffle-react/contracts/SimpleStorage3.sol",
  "compiler": {
    "name": "solc",
    "version": "0.5.0+commit.1d4f565a.Emscripten.clang"
  },
  "schemaVersion": "3.0.6",
  "updatedAt": "2019-06-16T11:26:08.532Z",
  "devdoc": {
    "methods": {}
  },
  "userdoc": {
    "methods": {}
  }
}