{
  "contractName": "SimpleStorage3",
  "abi": [
    {
      "constant": false,
      "inputs": [
        {
          "name": "x",
          "type": "string"
        }
      ],
      "name": "set",
      "outputs": [],
      "payable": false,
      "stateMutability": "nonpayable",
      "type": "function",
      "signature": "0x4ed3885e"
    },
    {
      "constant": false,
      "inputs": [
        {
          "name": "temp",
          "type": "string"
        }
      ],
      "name": "setMetaFile",
      "outputs": [],
      "payable": false,
      "stateMutability": "nonpayable",
      "type": "function",
      "signature": "0x4cf1cb96"
    },
    {
      "constant": false,
      "inputs": [
        {
          "name": "temp",
          "type": "bytes"
        }
      ],
      "name": "setKey",
      "outputs": [],
      "payable": false,
      "stateMutability": "nonpayable",
      "type": "function",
      "signature": "0x218ebfa3"
    },
    {
      "constant": true,
      "inputs": [],
      "name": "get",
      "outputs": [
        {
          "name": "",
          "type": "string"
        }
      ],
      "payable": false,
      "stateMutability": "view",
      "type": "function",
      "signature": "0x6d4ce63c"
    },
    {
      "constant": true,
      "inputs": [],
      "name": "getMetafile",
      "outputs": [
        {
          "name": "",
          "type": "string"
        }
      ],
      "payable": false,
      "stateMutability": "view",
      "type": "function",
      "signature": "0xe982425d"
    },
    {
      "constant": true,
      "inputs": [],
      "name": "getKey",
      "outputs": [
        {
          "name": "",
          "type": "bytes"
        }
      ],
      "payable": false,
      "stateMutability": "view",
      "type": "function",
      "signature": "0x82678dd6"
    }
  ],
  "bytecode": "0x608060405234801561001057600080fd5b5061080a806100206000396000f3fe608060405260043610610078576000357c0100000000000000000000000000000000000000000000000000000000900463ffffffff168063218ebfa31461007d5780634cf1cb96146101455780634ed3885e1461020d5780636d4ce63c146102d557806382678dd614610365578063e982425d146103f5575b600080fd5b34801561008957600080fd5b50610143600480360360208110156100a057600080fd5b81019080803590602001906401000000008111156100bd57600080fd5b8201836020820111156100cf57600080fd5b803590602001918460018302840111640100000000831117156100f157600080fd5b91908080601f016020809104026020016040519081016040528093929190818152602001838380828437600081840152601f19601f820116905080830192505050505050509192919290505050610485565b005b34801561015157600080fd5b5061020b6004803603602081101561016857600080fd5b810190808035906020019064010000000081111561018557600080fd5b82018360208201111561019757600080fd5b803590602001918460018302840111640100000000831117156101b957600080fd5b91908080601f016020809104026020016040519081016040528093929190818152602001838380828437600081840152601f19601f82011690508083019250505050505050919291929050505061049f565b005b34801561021957600080fd5b506102d36004803603602081101561023057600080fd5b810190808035906020019064010000000081111561024d57600080fd5b82018360208201111561025f57600080fd5b8035906020019184600183028401116401000000008311171561028157600080fd5b91908080601f016020809104026020016040519081016040528093929190818152602001838380828437600081840152601f19601f8201169050808301925050505050505091929192905050506104b9565b005b3480156102e157600080fd5b506102ea6104d3565b6040518080602001828103825283818151815260200191508051906020019080838360005b8381101561032a57808201518184015260208101905061030f565b50505050905090810190601f1680156103575780820380516001836020036101000a031916815260200191505b509250505060405180910390f35b34801561037157600080fd5b5061037a610575565b6040518080602001828103825283818151815260200191508051906020019080838360005b838110156103ba57808201518184015260208101905061039f565b50505050905090810190601f1680156103e75780820380516001836020036101000a031916815260200191505b509250505060405180910390f35b34801561040157600080fd5b5061040a610617565b6040518080602001828103825283818151815260200191508051906020019080838360005b8381101561044a57808201518184015260208101905061042f565b50505050905090810190601f1680156104775780820380516001836020036101000a031916815260200191505b509250505060405180910390f35b806002908051906020019061049b9291906106b9565b5050565b80600190805190602001906104b5929190610739565b5050565b80600090805190602001906104cf929190610739565b5050565b606060008054600181600116156101000203166002900480601f01602080910402602001604051908101604052809291908181526020018280546001816001161561010002031660029004801561056b5780601f106105405761010080835404028352916020019161056b565b820191906000526020600020905b81548152906001019060200180831161054e57829003601f168201915b5050505050905090565b606060028054600181600116156101000203166002900480601f01602080910402602001604051908101604052809291908181526020018280546001816001161561010002031660029004801561060d5780601f106105e25761010080835404028352916020019161060d565b820191906000526020600020905b8154815290600101906020018083116105f057829003601f168201915b5050505050905090565b606060018054600181600116156101000203166002900480601f0160208091040260200160405190810160405280929190818152602001828054600181600116156101000203166002900480156106af5780601f10610684576101008083540402835291602001916106af565b820191906000526020600020905b81548152906001019060200180831161069257829003601f168201915b5050505050905090565b828054600181600116156101000203166002900490600052602060002090601f016020900481019282601f106106fa57805160ff1916838001178555610728565b82800160010185558215610728579182015b8281111561072757825182559160200191906001019061070c565b5b50905061073591906107b9565b5090565b828054600181600116156101000203166002900490600052602060002090601f016020900481019282601f1061077a57805160ff19168380011785556107a8565b828001600101855582156107a8579182015b828111156107a757825182559160200191906001019061078c565b5b5090506107b591906107b9565b5090565b6107db91905b808211156107d75760008160009055506001016107bf565b5090565b9056fea165627a7a72305820f6e6c8a80c7f0aefb7b6b12ac88d5f2d1ddb7a6696402384f6f1081a3711dd6a0029",
  "source": "pragma solidity ^0.5.0;\r\n\r\ncontract SimpleStorage3 {\r\n  string storedData;\r\n  string metaHash;\r\n  bytes key;\r\n \r\n  function set(string memory x) public {\r\n    storedData = x;\r\n    \r\n  }\r\n\r\n  function setMetaFile(string memory temp) public {\r\n    metaHash = temp;\r\n    \r\n  }\r\n\r\n  function setKey(bytes memory temp) public{\r\n    key = temp;\r\n  }\r\n\r\n  function get() public view returns (string memory) {\r\n    return storedData;\r\n  }\r\n\r\n  function getMetafile() public view returns (string memory) {\r\n    return metaHash;\r\n  }\r\n  function getKey() public view returns (bytes memory) {\r\n    return key;\r\n  }\r\n}\r\n",
  "sourcePath": "D:/GitHub/Decentralized-File-Sharing-Framework/contracts/SimpleStorage3.sol",
  "compiler": {
    "name": "solc",
    "version": "0.5.0+commit.1d4f565a.Emscripten.clang"
  },
  "schemaVersion": "3.0.3",
  "updatedAt": "2019-08-24T19:59:12.823Z",
  "devdoc": {
    "methods": {}
  },
  "userdoc": {
    "methods": {}
  }
}